:100000000C9455000C947D000C947D000C947D00A4
:100010000C947D000C947D000C947D000C947D006C
:100020000C947D000C947D000C947D000C947D005C
:100030000C947D000C947D000C947D000C947D004C
:100040000C94AE010C947D000C94C3030C94F50346
:100050000C947D000C947D000C947D000C947D002C
:100060000C947D000C947D00010204081020408057
:1000700001020408102001020408102004040404F2
:100080000404040402020202020203030303030342
:1000900000000000250028002B00000000002400C4
:1000A00027002A00990025049F0011241FBECFEFCE
:1000B000D8E0DEBFCDBF11E0A0E0B1E0EAEFFBE0A9
:1000C00002C005900D92A631B107D9F723E0A6E151
:1000D000B1E001C01D92A733B207E1F710E0C8EA12
:1000E000D0E004C02297FE010E94C504C43AD107A3
:1000F000C9F70E9469040C94F0050C94000026E0F6
:1001000040E855E260E070E086E992E00E94610319
:1001100067E081E892E00E94860181E892E00E9417
:100120007E01E6E1F1E0119282E0EE37F807D9F7BF
:10013000089568E770E081E892E00C941F0181E87F
:1001400092E00C9485010F931F93CF93DF9386E980
:1001500092E00E947E02892B09F448C0C6E1D1E0FA
:1001600086E992E00E949702899386E992E00E94D4
:100170007E02892B89F469E070E080E090E00E94C3
:100180001B0286E992E00E947E02892B29F4C8E1D5
:10019000D1E000E010E005C082E0CE37D80701F7DB
:1001A000F6CFFE013197808180937F023197808165
:1001B00080937E0288818093800220917E0230911C
:1001C0007F0240918002B80181E892E00E943501EF
:1001D0000F5F1F4F23960837110519F781E892E04A
:1001E000DF91CF911F910F910C945D01DF91CF9121
:1001F0001F910F9108950F931F93D8019C91822F07
:1002000080958923292B3FB7F894FB01460F571F90
:10021000E417F50781F0919168E02C9300C097FFF7
:100220008C93990F00C000C000C008F48C9300C0EC
:100230006A9599F7EDCF3FBF1F910F910895CF9326
:10024000DF93EC0179836883CB01880F991F860FB8
:10025000971F0E94C9049B838A831D8281E08C833F
:1002600082E08E83DF91CF910895FC01808191819E
:100270006817790700F5CB01880F991F860F971F24
:100280005581A281B381A80FB91FA50FB11D2C9371
:100290002481A281B381A80FB91FA20FB11D3C9385
:1002A00026810280F381E02DE80FF91FE20FF11D96
:1002B000408380E0089581E00895EF92FF920F93CC
:1002C0001F93FC01A185B2858C919385892B8C931A
:1002D000E184F2840781108580819181AC01440F13
:1002E000551F480F591F628173812385CF010E94DA
:1002F000FB001F910F91FF90EF900895FC01148275
:1003000081E0858382E0868308950895DC0170E0B2
:10031000FB01E859FF4FE4911B96EC931B9764583F
:100320007F4FFB01249130E0220F331F20573F4FB6
:10033000F9018591949118969C938E931797FB01E0
:100340006491E62FF0E0EE0FFF1FE656FF4F859118
:1003500094911A969C938E93199708951F920F92D9
:100360000FB60F9211242F933F938F939F93AF93C8
:10037000BF9380918E0290918F02A0919002B091D4
:10038000910230918D0223E0230F2D3720F4019646
:10039000A11DB11D05C026E8230F0296A11DB11DA8
:1003A00020938D0280938E0290938F02A0939002EF
:1003B000B09391028091920290919302A091940245
:1003C000B09195020196A11DB11D80939202909368
:1003D0009302A0939402B0939502BF91AF919F9125
:1003E0008F913F912F910F900FBE0F901F901895F6
:1003F0003FB7F8948091920290919302A091940259
:10040000B091950226B5A89B05C02F3F19F0019623
:10041000A11DB11D3FBF6627782F892F9A2F620F2C
:10042000711D811D911D42E0660F771F881F991F66
:100430004A95D1F70895CF92DF92EF92FF92CF9332
:10044000DF936B017C010E94F801EB01C114D10420
:10045000E104F10489F00E94A0040E94F8016C1BE1
:100460007D0B683E734090F381E0C81AD108E10823
:10047000F108C851DC4FEACFDF91CF91FF90EF90A8
:10048000DF90CF900895789484B5826084BD84B560
:10049000816084BD85B5826085BD85B5816085BD7F
:1004A000EEE6F0E0808181608083E1E8F0E0108298
:1004B000808182608083808181608083E0E8F0E0D9
:1004C000808181608083E1EBF0E0808184608083C3
:1004D000E0EBF0E0808181608083EAE7F0E08081FA
:1004E000846080838081826080838081816080835A
:1004F0008081806880831092C1000895FC01818D05
:10050000228D90E0805C9F4F821B91098F73992709
:100510000895FC01918D828D981731F0828DE80F3E
:10052000F11D858D90E008958FEF9FEF0895FC01F8
:10053000918D828D981761F0828DDF01A80FB11D1A
:100540005D968C91928D9F5F9F73928F90E008953E
:100550008FEF9FEF08958BE194E0892B49F080E0C5
:1005600090E0892B29F00E941B0481110C9400005B
:100570000895FC01848DDF01A80FB11DA35ABF4F60
:100580002C91848D90E001968F739927848FA68992
:10059000B7892C93A089B1898C9180648C93938DB9
:1005A000848D981306C00288F389E02D80818F7DA9
:1005B00080830895CF93DF93EC01888D8823C9F061
:1005C000EA89FB89808185FD05C0A889B9898C915C
:1005D00086FD0FC00FB607FCF5CF808185FFF2CFF7
:1005E000A889B9898C9185FFEDCFCE010E94B9020F
:1005F000E7CFDF91CF910895CF92DF92FF920F93D3
:100600001F93CF93DF931F92CDB7DEB76C0181E0CC
:10061000D60158968C9358975B969C915B975C9605
:100620008C915C97981307C05096ED91FC9151976F
:10063000808185FD2EC0F601038D10E00F5F1F4FF6
:100640000F731127F02EF601848DF81211C00FB62A
:1006500007FCF9CFD6015096ED91FC91519780811E
:1006600085FFF1CFC60169830E94B9026981EBCF92
:10067000838DE80FF11DE35AFF4F6083D6015B962F
:100680000C935B975296ED91FC9153978081806219
:100690000CC0D6015696ED91FC9157976083509609
:1006A000ED91FC91519780818064808381E090E09E
:1006B0000F90DF91CF911F910F91FF90DF90CF901E
:1006C0000895BF92CF92DF92EF92FF92CF93DF9384
:1006D000EC016A017B01B22EE889F98982E080830E
:1006E000411581EE580761057105A1F060E079E0E0
:1006F0008DE390E0A70196010E94A10421503109E9
:10070000410951095695479537952795211580E15F
:10071000380798F0E889F989108260E874E88EE17A
:1007200090E0A70196010E94A104215031094109DE
:1007300051095695479537952795EC85FD8530836A
:10074000EE85FF852083188EEC89FD89B082EA89C9
:10075000FB89808180618083EA89FB898081886050
:100760008083EA89FB89808180688083EA89FB89AC
:1007700080818F7D8083DF91CF91FF90EF90DF901C
:10078000CF90BF9008951F920F920FB60F92112431
:100790002F938F939F93EF93FF93E091A602F09195
:1007A000A7028081E091AC02F091AD0282FD12C0FF
:1007B00090818091AF028F5F8F732091B00282177A
:1007C00051F0E091AF02F0E0EA56FD4F958F809333
:1007D000AF0201C08081FF91EF919F918F912F9186
:1007E0000F900FBE0F901F9018951F920F920FB68B
:1007F0000F9211242F933F934F935F936F937F93A7
:100800008F939F93AF93BF93EF93FF9386E992E00B
:100810000E94B902FF91EF91BF91AF919F918F918B
:100820007F916F915F914F913F912F910F900FBEEC
:100830000F901F90189586E992E00E947E0221E0B9
:10084000892B09F420E0822F0895109299021092CA
:10085000980288EE93E0A0E0B0E080939A02909333
:100860009B02A0939C02B0939D028AE091E090933A
:1008700097028093960285EC90E09093A302809378
:10088000A20284EC90E09093A5028093A40280ECF5
:1008900090E09093A7028093A60281EC90E0909361
:1008A000A9028093A80282EC90E09093AB0280931F
:1008B000AA0286EC90E09093AD028093AC02109275
:1008C000AF021092B0021092B1021092B2020895DB
:1008D00008950E9443020E9468040E947F00CBEAB0
:1008E000D2E00E94A3002097E1F30E94AB02F9CF6F
:1008F000CF92DF92EF92FF920F931F93CF93DF93EC
:100900007C016A01EB0100E010E00C151D0571F09F
:100910006991D701ED91FC910190F081E02DC70123
:100920000995892B19F00F5F1F4FEFCFC801DF9199
:10093000CF911F910F91FF90EF90DF90CF9008958E
:100940000895A1E21A2EAA1BBB1BFD010DC0AA1F10
:10095000BB1FEE1FFF1FA217B307E407F50720F028
:10096000A21BB30BE40BF50B661F771F881F991FA3
:100970001A9469F760957095809590959B01AC01EC
:10098000BD01CF010895EE0FFF1F0590F491E02DFA
:100990000994CF93DF938230910510F482E090E0C8
:1009A000E0913503F091360320E030E0A0E0B0E0C4
:1009B000309739F14081518148175907B8F04817ED
:1009C000590771F482819381109729F013969C93B3
:1009D0008E9312972CC0909336038093350327C0D3
:1009E0002115310531F04217530718F0A901DB0139
:1009F00001C0EF019A01BD01DF010280F381E02D0A
:100A0000D7CF21153105F9F0281B390B24303105DA
:100A100080F48A819B816115710521F0FB0193832C
:100A2000828304C09093360380933503FE0132968F
:100A300044C0FE01E20FF31F8193919322503109CC
:100A4000398328833AC02091330330913403232B18
:100A500041F420910201309103013093340320933B
:100A6000330320910001309101012115310541F43A
:100A70002DB73EB74091040150910501241B350B61
:100A8000E0913303F0913403E217F307A0F42E1B37
:100A90003F0B2817390778F0AC014E5F5F4F2417E2
:100AA000350748F04E0F5F1F5093340340933303D4
:100AB0008193919302C0E0E0F0E0CF01DF91CF910C
:100AC0000895CF93DF93009709F487C0FC01329714
:100AD00013821282C0913503D0913603209781F49E
:100AE00020813181280F391F809133039091340385
:100AF0008217930779F5F0933403E09333036DC0C5
:100B0000DE0120E030E0AE17BF0750F412964D91A1
:100B10005C9113979D014115510509F1DA01F3CF5D
:100B2000B383A28340815181840F951F8A179B074D
:100B300071F48D919C911197840F951F029691836A
:100B4000808312968D919C911397938382832115B4
:100B5000310529F4F0933603E09335033EC0D90103
:100B60001396FC93EE9312974D915D91A40FB51FD0
:100B7000EA17FB0779F480819181840F951F029613
:100B8000D90111969C938E938281938113969C93A5
:100B90008E931297E0E0F0E08A819B81009719F034
:100BA000FE01EC01F9CFCE01029628813981820F36
:100BB000931F20913303309134032817390769F4C8
:100BC000309729F4109236031092350302C0138235
:100BD0001282D0933403C0933303DF91CF910895F1
:100BE00010E0C8EAD0E004C0FE010E94C5042296CD
:0A0BF000CA3AD107C9F7F894FFCF05
:100BFA0000003703800000000000FC0278047E0237
:060C0A0097028902DA02E4
:00000001FF
